{
  "contractName": "NamehashTest",
  "abi": [
    {
      "constant": true,
      "inputs": [
        {
          "name": "domain",
          "type": "bytes"
        }
      ],
      "name": "namehash",
      "outputs": [
        {
          "name": "",
          "type": "bytes32"
        }
      ],
      "payable": false,
      "stateMutability": "pure",
      "type": "function"
    }
  ],
  "bytecode": "0x608060405234801561001057600080fd5b5061024b806100206000396000f3fe608060405234801561001057600080fd5b5060043610610047577c010000000000000000000000000000000000000000000000000000000060003504630e0fb924811461004c575b600080fd5b6100bc6004803603602081101561006257600080fd5b81019060208101813564010000000081111561007d57600080fd5b82018360208201111561008f57600080fd5b803590602001918460018302840111640100000000831117156100b157600080fd5b5090925090506100ce565b60408051918252519081900360200190f35b600061010f83838080601f01602080910402602001604051908101604052809392919081815260200183838082843760009201919091525061011892505050565b90505b92915050565b60006101128260005b600081835111151561013557506000610112565b60006101418484610193565b905061015284828501600101610121565b61015d858584610202565b60405160200180838152602001828152602001925050506040516020818303038152906040528051906020012091505092915050565b6000805b8351818401141580156101f55750838184018151811015156101b557fe5b90602001015160f860020a900460f860020a027effffffffffffffffffffffffffffffffffffffffffffffffffffffffffffff1916602e60f860020a0214155b1561010f57600101610197565b8251600090838301111561021557600080fd5b509101602001209056fea165627a7a72305820bbac250aaf2420bd77acaa1436892c8f10a1636b9e047e30085b77954f454e5d0029",
  "source": "pragma solidity ^0.5.2;\n\nimport './ENSNamehash.sol';\n\ncontract NamehashTest {\n  using ENSNamehash for bytes;\n\n  function namehash(bytes calldata domain) external pure returns (bytes32) {\n    return domain.namehash();\n  }\n}\n",
  "sourcePath": "/home/jonah/ens-namehash/contracts/NamehashTest.sol",
  "compiler": {
    "name": "solc",
    "version": "0.5.2+commit.1df8f40c.Emscripten.clang"
  },
  "schemaVersion": "3.3.2",
  "updatedAt": "2020-11-16T21:17:42.304Z",
  "devdoc": {
    "methods": {}
  },
  "userdoc": {
    "methods": {}
  }
}